:040000000CEF00F011
:10000800FACF01F0FBCF02F0E9CF03F00EED00F0DC
:1000180073EF00F00600EACF04F0E1CF05F0E2CF7D
:1000280006F0D9CF07F0DACF08F0F3CF09F0F4CF14
:100038000AF0F6CF0BF0F7CF0CF0F8CF0DF0F5CFB4
:100048000EF09EA201D001D005D09DA201D001D012
:1000580001D09E92F2A601D001D006D0F2A001D024
:1000680001D002D0F29000D00EC0F5FF0DC0F8FF0D
:100078000CC0F7FF0BC0F6FF0AC0F4FF09C0F3FF7E
:1000880008C0DAFF07C0D9FF06C0E2FF05C0E1FFDC
:1000980004C0EAFF03C0E9FF02C0FBFF01C0FAFF8A
:1000A8001100F28EF28C9D82F286F19ECB681F0EB3
:1000B800BE6E000EBD6E000E946E000E936E000EA6
:1000C800CC6E030ECA6ECA840F0EBD6E120055ECBC
:1000D80000F07AEC00F0FDD7FCD70CEF00F0176ABF
:0E00E800166A156A146A00016BEF00F0120030
:020000040030CA
:08000000004A1E1FFF8181FF71
:00000001FF
